{
  "contractName": "AdvancedStorage",
  "abi": [
    {
      "constant": true,
      "inputs": [
        {
          "internalType": "uint256",
          "name": "",
          "type": "uint256"
        }
      ],
      "name": "numbers",
      "outputs": [
        {
          "internalType": "uint256",
          "name": "",
          "type": "uint256"
        }
      ],
      "payable": false,
      "stateMutability": "view",
      "type": "function"
    },
    {
      "constant": false,
      "inputs": [
        {
          "internalType": "uint256",
          "name": "num",
          "type": "uint256"
        }
      ],
      "name": "addItem",
      "outputs": [],
      "payable": false,
      "stateMutability": "nonpayable",
      "type": "function"
    },
    {
      "constant": true,
      "inputs": [
        {
          "internalType": "uint256",
          "name": "index",
          "type": "uint256"
        }
      ],
      "name": "getItem",
      "outputs": [
        {
          "internalType": "uint256",
          "name": "",
          "type": "uint256"
        }
      ],
      "payable": false,
      "stateMutability": "view",
      "type": "function"
    },
    {
      "constant": true,
      "inputs": [],
      "name": "getAll",
      "outputs": [
        {
          "internalType": "uint256[]",
          "name": "",
          "type": "uint256[]"
        }
      ],
      "payable": false,
      "stateMutability": "view",
      "type": "function"
    },
    {
      "constant": true,
      "inputs": [],
      "name": "getLength",
      "outputs": [
        {
          "internalType": "uint256",
          "name": "",
          "type": "uint256"
        }
      ],
      "payable": false,
      "stateMutability": "view",
      "type": "function"
    }
  ],
  "bytecode": "0x608060405234801561001057600080fd5b50610294806100206000396000f3fe608060405234801561001057600080fd5b50600436106100575760003560e01c80633129e7731461005c57806353ed51431461009e578063be1c766b146100fd578063be6340451461011b578063d39fa23314610149575b600080fd5b6100886004803603602081101561007257600080fd5b810190808035906020019092919050505061018b565b6040518082815260200191505060405180910390f35b6100a66101ab565b6040518080602001828103825283818151815260200191508051906020019060200280838360005b838110156100e95780820151818401526020810190506100ce565b505050509050019250505060405180910390f35b610105610203565b6040518082815260200191505060405180910390f35b6101476004803603602081101561013157600080fd5b810190808035906020019092919050505061020f565b005b6101756004803603602081101561015f57600080fd5b810190808035906020019092919050505061023e565b6040518082815260200191505060405180910390f35b600080828154811061019957fe5b90600052602060002001549050919050565b606060008054806020026020016040519081016040528092919081815260200182805480156101f957602002820191906000526020600020905b8154815260200190600101908083116101e5575b5050505050905090565b60008080549050905090565b600081908060018154018082558091505090600182039060005260206000200160009091929091909150555050565b6000818154811061024b57fe5b90600052602060002001600091509050548156fea265627a7a723158208e549aa7bd42cc93e5a5bccc3776a5cf2775649e8d15fcdf86622a76acc50a4c64736f6c63430005100032",
  "source": "pragma solidity ^0.5.1;\n\ncontract AdvancedStorage {\n  uint256[] public numbers;\n\n  function addItem(uint256 num) public {\n    numbers.push(num);\n  }\n\n  function getItem(uint256 index) public view returns (uint256) {\n    return numbers[index];\n  }\n\n  function getAll() public view returns (uint256[] memory) {\n    return numbers;\n  }\n\n  function getLength() public view returns (uint256) {\n    return numbers.length;\n  }\n}\n",
  "sourcePath": "/Users/curmit/dev/My-Projects/beginner-blockchain-apps/AdvancedStorage/contracts/AdvancedStorage.sol",
  "compiler": {
    "name": "solc",
    "version": "0.5.16+commit.9c3226ce.Emscripten.clang"
  },
  "schemaVersion": "3.4.1",
  "updatedAt": "2021-07-19T11:44:56.826Z",
  "networkType": "ethereum",
  "devdoc": {
    "methods": {}
  },
  "userdoc": {
    "methods": {}
  }
}